S0100000706A5F66696E616C2E73726563D1
S113000086C00000A2C00000A0C000009EC0000086
S11300109CC000009AC0000098C0000096C0000078
S113002094C0000092C00000A6C500008EC000006D
S11300308CC000008AC0000088C0000086C0000098
S113004084C0000082C0000080C000007EC00000A8
S11300507CC000007AC0000078C0000076C00000B8
S113006074C0000072C0000070C000006EC00000C8
S11300706CC000006AC0000068C0000066C00000D8
S113008064C0000062C0000060C0000008000000FE
S1130090BE922449123EABAAAA2ABECDCCCC4C3E79
S11300A000000080BEABAAAAAA3E00000000BF0068
S11300B00000803F0000000000084178D3BB438764
S11300C0D1133D190E3CC3BD4282AD2B3E68EC8278
S11300D076BED98FE1A93E4C80EFFFBE01C4FF7FFD
S11300E03F000000000007634236B79BD8A71A39C7
S11300F0685618AEBAAB558C1D3CB7CC5763BD6D72
S1130100EDFD753EF6177231BF000000803F1124EB
S11301101FBECFEFD0E1DEBFCDBF11E0A0E0B1E064
S1130120EAECF6E100E00BBF02C007900D92A830A4
S1130130B107D9F721E0A8E0B1E001C01D92A935CB
S1130140B207E1F7E2D10C94630B5ACFCF92DF925E
S1130150EF92FF929B01AC01609104017091050143
S113016080910601909107010E94A2096B017C0114
S1130170609100017091010180910201909103014D
S11301802091360130913701409138015091390165
S11301900E94A2099B01AC01C701B601D7D66B012D
S11301A07C016091000170910101809102019091A4
S11301B00301209104013091050140910601509101
S11301C00701C4D69B01AC01C701B60127D76093D0
S11301D03A0170933B0180933C0190933D018091DF
S11301E03A0190913B01A0913C01B0913D01809373
S11301F0360190933701A0933801B093390160918F
S11302003A0170913B0180913C0190913D01FF9036
S1130210EF90DF90CF900895CF93DF931092080171
S11302201092090110920A0110920B01E0910C0145
S1130230F0910D01EE0FFF1FEE0FFF1FE25FFE4F67
S11302406083718382839383C0E0D0E01DC0FE018C
S1130250EE0FFF1FEE0FFF1FE25FFE4F6081718103
S113026082819381209108013091090140910A0112
S113027050910B016BD66093080170930901809330
S11302800A0190930B012196CA30D10504F38091A1
S11302900C0190910D01099729F410920D0110920F
S11302A00C0109C080910C0190910D01019690936D
S11302B00D0180930C0160910801709109018091F6
S11302C00A0190910B0120E030E040E251E4A6D60F
S11302D0DF91CF91089517B886B1806486B9349BB5
S11302E0FECF64B175B1072E000C880B990B31D782
S11302F020E030E040EA50E40E94A20920E030EC23
S11303004FE754E48BC6089582E087B986B18064D0
S113031086B9349BFECF64B175B1072E000C880BEF
S1130320990B17D720E030E040EA50E40E94A2097C
S113033020E030EC4FE754E471C6089520E030E04B
S113034048EC52E4FFC7089581E087B986B1806420
S113035086B9349BFECF64B175B1072E000C880BAF
S1130360990BF7D620E030E040EA50E4EBD720E0E8
S113037030EC4FE754E452C608959B01AC0160E0B1
S113038078E987EB96E44AD620E030EE42E955E47A
S1130390DCD598D72FED38E647E251E4D6D523E3F0
S11303A033E343E35FE33AD69B01AC0160E070E0E2
S11303B080E89FE3CAD59AD62AE06227CAC6089580
S11303C084E087B986B1806486B9349BFECF64B17A
S11303D075B1072E000C880B990BBBD620E030E0DA
S11303E040EA50E4AFD720E030EC4FE754E416C6BF
S11303F00895CF92DF92EF92FF922FE93BEA4DE20C
S11304005EE3A3D59B01AC0168E471EE8CED91E44D
S113041005D66B017C0120E030E040E251E4FAD5DE
S1130420882344F40F2EC12CD12CF0E2EF2EF1E4FA
S1130430FF2EF02DC701B601FF90EF90DF90CF9013
S1130440089585E087B986B1806486B9349BFECF70
S113045064B175B1072E000C880B990B7AD620E095
S113046030E040EA50E46ED720E030EC4FE754E44B
S1130470D5C508959B01AC0160E070E080EA90E48A
S113048064D520E030E040EA50E4C8D520E030E014
S113049048EC52E457C7089586E087B986B1806472
S11304A086B9349BFECF64B175B1072E000C880B5E
S11304B0990B4FD620E030E040EA50E443D720E0E7
S11304C030EC4FE754E4AAC508959B01AC0160E009
S11304D070E080EA90E4A2D520E030E040E85FE3F9
S11304E034D520E030E040E251E42CD720E030E085
S11304F040E251E493D52FE335E34EE050EC85D749
S113050020E030E94FE054E41DC78FEF8ABB87BB7E
S113051084BB82B91092610017B887E886B985E078
S113052085BD83E684BD80E487BF789482E28FBD75
S11305308DE18EBD88E391E097BD86BD88EC90E0A7
S113054099BD88BD51D415BA80913E0190913F0167
S1130550892BA1F48091400190914101892B71F480
S11305608091420190914301892B41F4809144018F
S113057090914501892B11F415BAE6CF80913E0183
S113058090913F01892BA9F0809140019091410104
S1130590892B79F48091420190914301892B49F48C
S11305A08091440190914501892B19F481E085BB28
S11305B0CBCF80913E0190913F01892BA9F480918A
S11305C0400190914101892B79F0809142019091F1
S11305D04301892B49F48091440190914501892B71
S11305E019F482E085BBB0CF80913E0190913F0128
S11305F0892BA1F48091400190914101892B71F4E0
S11306008091420190914301892B41F080914401F2
S113061090914501892B11F415BA96CF80913E0132
S113062090913F01892BA1F4809140019091410167
S1130630892B71F48091420190914301892B41F4FB
S11306408091440190914501892B11F015BA7CCF1A
S113065080913E0190913F01892BA9F08091400146
S113066090914101892B79F080914201909143014D
S1130670892B49F48091440190914501892B19F407
S113068083E085BB61CF80913E0190913F01892B2E
S1130690A9F08091400190914101892B79F48091D6
S11306A0420190914301892B49F08091440190913A
S11306B04501892B19F481E085BB46CF80913E0129
S11306C090913F01892BA9F08091400190914101C3
S11306D0892B79F48091420190914301892B49F44B
S11306E08091440190914501892B19F081E085BBEB
S11306F02BCF80913E0190913F01892BA9F48091E9
S1130700400190914101892B79F0809142019091AF
S11307104301892B49F08091440190914501892B33
S113072019F482E085BB10CF80913E0190913F0186
S1130730892BA9F48091400190914101892B79F092
S11307408091420190914301892B49F480914401A5
S113075090914501892B19F082E085BBF5CE8091FB
S11307603E0190913F01892BA9F480914001909121
S11307704101892B79F48091420190914301892BA5
S113078049F08091440190914501892B19F080E151
S113079085BBDACE80913E0190913F01892BA9F06F
S11307A08091400190914101892B79F0809142011F
S11307B090914301892B49F0809144019091450126
S11307C0892B19F483E085BBBFCE80913E019091C3
S11307D03F01892BA9F08091400190914101892B1F
S11307E079F08091420190914301892B49F48091E1
S11307F0440190914501892B19F083E085BBA4CE77
S113080080913E0190913F01892BA9F08091400194
S113081090914101892B79F4809142019091430197
S1130820892B49F08091440190914501892B19F05D
S113083081E185BB89CE80913E0190913F01892B56
S1130840A9F48091400190914101892B79F0809124
S1130850420190914301892B49F080914401909188
S11308604501892B19F082E185BB6ECE80913E0152
S113087090913F01892BA9F0809140019091410111
S1130880892B79F08091420190914301892B49F0A1
S11308908091440190914501892B19F083E185BB36
S11308A053CE15BA51CECF92DF92EF92FF926B01E5
S11308B07C0188E391E097BD86BD20E030E040E80C
S11308C05FE3C701B601A6D388232CF41092580124
S11308D01092570154C020E030E040E050E4C701DA
S11308E0B60198D388233CF480E890E090935801B3
S11308F08093570144C020E030E040E450E4C70155
S1130900B60188D388233CF482E890E090935801A0
S11309108093570134C020E030E040E850E4C70140
S1130920B60178D388233CF484E890E0909358018E
S11309308093570124C020E030E040EA50E4C7012E
S1130940B60168D388233CF488EC90E09093580176
S11309508093570114C020E030E040EC50E4C7011C
S1130960B60158D388233CF488E191E09093580170
S11309708093570104C01092580110925701FF90C0
S1130980EF90DF90CF90089520E030E040E351E411
S113099090D418162CF4109241011092400108953D
S11309A081E090E090934101809340010895CF92BB
S11309B0DF92EF92FF926B017C0120E030E040E98E
S11309C051E428D318161CF08EEF8BBB49C020E0ED
S11309D030E040EA51E4C701B6011CD318161CF0FC
S11309E08CEF8BBB3DC020E030E040EB51E4C7010D
S11309F0B60110D318161CF088EF8BBB31C020E071
S1130A0030E040EC51E4C701B60104D318161CF0E1
S1130A1080EF8BBB25C020E030E040ED51E4C701FE
S1130A20B601F8D218161CF080EE8BBB19C020E07A
S1130A3030E040EE51E4C701B601ECD218161CF0C8
S1130A4080EE8BBB0DC020E030E040EF51E4C701E5
S1130A50B601E0D218161CF080EC8BBB01C01BBAA7
S1130A60FF90EF90DF90CF900895CF92DF92EF92B6
S1130A70FF926B017C0120E030E040E351E419D4A3
S1130A808823BCF020E030E040E551E4C701B60122
S1130A90C1D2181674F081E090E0909345018093E0
S1130AA0440113B8809157019091580199BD88BDB4
S1130AB037C020E030E040E551E4C701B601F9D386
S1130AC018166CF4109245011092440182E083B927
S1130AD0809157019091580199BD88BD21C020E0B3
S1130AE030E040E351E4C701B60194D288236CF4AA
S1130AF0109245011092440181E083B9809157011D
S1130B009091580199BD88BD0BC010924501109277
S1130B10440113B8809157019091580199BD88BD43
S1130B20FF90EF90DF90CF90089520E030E040E711
S1130B3052E470D288233CF481E090E09093430126
S1130B408093420108951092430110924201089546
S1130B5020E030E046E153E4ACD318163CF481E0E5
S1130B6090E090933F0180933E01089510923F01DD
S1130B7010923E0108951F920F920FB60F92112406
S1130B800BB60F924F925F926F927F928F929F92C9
S1130B90AF92BF92CF92DF92EF92FF922F933F9347
S1130BA04F935F936F937F938F939F93AF93BF9371
S1130BB0EF93FF93CF93DF93CDB7DEB76097DEBF9C
S1130BC0CDBF83E684BD8091460190914701019693
S1130BD0909347018093460180914601909147018B
S1130BE08436910509F0D9C010924701109246014C
S1130BF072DB2B013C01A8DB4B015C0185DB6B0143
S1130C007C01DEDB69837A838B839C831ADC6D83AE
S1130C107E838F83988740DC69877A878B879C875C
S1130C20C501B401AADB4B015C01C701B60186DB37
S1130C306B017C0169817A818B819C81DADB698318
S1130C407A838B839C836D817E818F81988512DC6E
S1130C506D837E838F83988769857A858B859C8550
S1130C6034DC69877A878B879C87C301B2016EDA8B
S1130C706D877E878F87988BC301B201CDDAC5015A
S1130C80B40164DA2B013C01C501B401C5DAC70122
S1130C90B6015CDA4B015C01C701B601BDDA6981BA
S1130CA07A818B819C8152DA6B017C0169817A8122
S1130CB08B819C81B1DA6D817E818F81988546DA42
S1130CC069837A838B839C836D817E818F819885F0
S1130CD0A3DA69857A858B859C8538DA6D837E8372
S1130CE08F83988769857A858B859C8595DA6D8550
S1130CF07E858F859889FAD1A1D08BD08CE282D061
S1130D00C301B201F3D19AD084D08CE27BD0C50167
S1130D10B401ECD193D07DD08CE274D0C701B6017C
S1130D20E5D18CD076D08CE26DD069817A818B81CB
S1130D309C81DCD183D06DD08CE264D06D817E81C6
S1130D408F819885D3D17AD064D08CE25BD06091C6
S1130D50570170915801072E000C880B990B6ED027
S1130D6058D08CE24FD08AE04DD06D857E858F853A
S1130D70988999DDC301B20107DEC501B40117DE0C
S1130D80C701B60172DE69817A818B819C81CDDED7
S1130D906D817E818F819885DBDE60960FB6F89435
S1130DA0DEBF0FBECDBFDF91CF91FF91EF91BF9119
S1130DB0AF919F918F917F916F915F914F913F91EF
S1130DC02F91FF90EF90DF90CF90BF90AF909F90C6
S1130DD08F907F906F905F904F900F900BBE0F900D
S1130DE00FBE0F901F90189510929B0088E180937E
S1130DF09A0086E080939D001092980087E6809385
S1130E009900089590919B0095FFFCCF80939C00DE
S1130E1008950F931F93CF93DF938C01C0E0D0E02C
S1130E2002C0F0DF2196F801EC0FFD1F80818111D3
S1130E30F8CFDF91CF911F910F9108950F931F93D6
S1130E40CF9320E030E006C0F901E85BFE4F10824A
S1130E502F5F3F4F2F303105BCF3161617061806C7
S1130E6019060CF52BE220934801C1E016C00C2FA3
S1130E7010E02AE030E040E050E0E7D3F801E85B1E
S1130E80FE4F605D6083622F732F842F952F611551
S1130E90710581059105E1F1CF5F6115710581054A
S1130EA0910529F735C0992344F59095809570955F
S1130EB061957F4F8F4F9F4F2DE220934801C1E0F2
S1130EC016C00C2F10E02AE030E040E050E0BDD323
S1130ED0F801E85BFE4F605D6083622F732F842FFF
S1130EE0952F611571058105910591F0CF5F61150D
S1130EF071058105910529F70BC0672B682B692BB8
S1130F0039F4E8E4F1E08BE2808380E3818317C065
S1130F10CF5F81E010C0282F30E0D901A85BBE4F1D
S1130F209C91EC2FF0E0E21BF30BE85BFE4F208179
S1130F302C9390838F5F9C2F9695981760F788E485
S1130F4091E0CF911F910F9108955058BB27AA2784
S1130F500ED075C166D130F06BD120F031F49F3FD3
S1130F6011F41EF45BC10EF4E095E7FB51C1E92FC7
S1130F7077D180F3BA17620773078407950718F0CF
S1130F8071F49EF58FC10EF4E0950B2EBA2FA02DAF
S1130F900B01B90190010C01CA01A0011124FF2722
S1130FA0591B99F0593F50F4503E68F11A16F0401D
S1130FB0A22F232F342F4427585FF3CF469537951C
S1130FC02795A795F0405395C9F77EF41F16BA0BE1
S1130FD0620B730B840BBAF09150A1F0FF0FBB1F8F
S1130FE0661F771F881FC2F70EC0BA0F621F731FD8
S1130FF0841F48F4879577956795B795F7959E3F35
S113100008F0B3CF9395880F08F09927EE0F9795C2
S113101087950895D9D008F481E008950CD00FC1C4
S113102007D140F0FED030F021F45F3F19F0F0C05A
S1131030511139C1F3C014D198F39923C9F355233D
S1131040B1F3951B550BBB27AA27621773078407B7
S113105038F09F5F5F4F220F331F441FAA1FA9F36D
S113106033D00E2E3AF0E0E830D091505040E6955F
S1131070001CCAF729D0FE2F27D0660F771F881FC0
S1131080BB1F261737074807AB07B0E809F0BB0BAF
S1131090802DBF01FF2793585F4F2AF09E3F5105D3
S11310A068F0B6C000C15F3FECF3983EDCF3869570
S11310B077956795B795F7959F5FC9F7880F911D49
S11310C09695879597F90895E1E0660F771F881F35
S11310D0BB1F621773078407BA0720F0621B730BE8
S11310E0840BBA0BEE1F88F7E095089504D068943A
S11310F0B111D9C00895BCD088F09F5790F0B92F92
S11311009927B751A0F0D1F0660F771F881F991F58
S11311101AF0BA95C9F712C0B13081F0C3D0B1E06A
S11311200895C0C0672F782F8827B85F39F0B93F7A
S1131130CCF3869577956795B395D9F73EF490955A
S11311408095709561957F4F8F4F9F4F0895E894D8
S113115009C097FB3EF490958095709561957F4FFB
S11311608F4F9F4F9923A9F0F92F96E9BB279395A9
S1131170F695879577956795B795F111F8CFFAF4B9
S1131180BB0F11F460FF1BC06F5F7F4F8F4F9F4FEA
S113119016C0882311F096E911C0772321F09EE848
S11311A0872F762F05C0662371F096E8862F70E0AE
S11311B060E02AF09A95660F771F881FDAF7880F88
S11311C09695879597F90895990F0008550FAA0BDE
S11311D0E0E8FEEF16161706E807F907C0F0121646
S11311E01306E407F50798F0621B730B840B950B49
S11311F039F40A2661F0232B242B252B21F408959E
S11312000A2609F4A140A6958FEF811D811D08953A
S113121097F99F6780E870E060E008959FEF80ECA5
S1131220089500240A941616170618060906089548
S113123000240A9412161306140605060895092EAE
S11312400394000C11F4882352F0BB0F40F4BF2B1D
S113125011F460FF04C06F5F7F4F8F4F9F4F08955D
S113126057FD9058440F551F59F05F3F71F0479553
S1131270880F97FB991F61F09F3F79F08795089538
S1131280121613061406551FF2CF4695F1DF08C057
S1131290161617061806991FF1CF86957105610574
S11312A008940895E894BB2766277727CB0197F91C
S11312B008958ADF08F48FEF08950EF023C1AECFAE
S11312C06894A6CFD5DFC8F39923D1F3C6F3DF938F
S11312D0CF931F930F93FF92C92FDD2788232AF002
S11312E02197660F771F881FDAF720E030E040E887
S11312F05FEB9FE3883920F0803E30F021968F77B2
S113130025DEECE8F0E003C021DEE9EBF0E008D1F3
S11313108B01BE01EC01FB2E6F5771097595771F88
S1131320880B990B16DF28E132E741E35FE316D01F
S1131330AF2D9801AE01FF900F911F91CF91DF91D6
S113134016DE7DCF0BD07BCF6CDF28F071DF18F079
S1131350952309F05DCF62CF1124A5CF81DFA0F3DF
S1131360959FD1F3950F50E0551F629FF001729F36
S1131370BB27F00DB11D639FAA27F00DB11DAA1F55
S1131380649F6627B00DA11D661F829F2227B00DA2
S1131390A11D621F739FB00DA11D621F839FA00D2D
S11313A0611D221F749F3327A00D611D231F849F7D
S11313B0600D211D822F762F6A2F11249F575040D4
S11313C08AF0E1F088234AF0EE0FFF1FBB1F661F6F
S11313D0771F881F91505040A9F79E3F510570F028
S11313E017CF61CF5F3FECF3983EDCF3869577959A
S11313F06795B795F795E7959F5FC1F7FE2B880F23
S1131400911D9695879597F90895FA01EE0FFF1FA0
S113141030962105310599F16115710561F4803823
S1131420BFE39B0749F168949038810561F08038E7
S1131430BFEF9B0741F0992342F5FF3FE1053105DA
S1131440210511F1E8940894E795D901AA2329F418
S1131450AB2FBE2FF85FD0F310C0FF5F70F4A695DA
S1131460E0F7F73950F019F0FF3A38F49F779F937B
S11314700CD00F9007FC905808953EF0CFCE60E05A
S113148070E080E89FE308954FE79F775F934F9361
S11314903F932F9317DF2F913F914F915F9152DF2D
S11314A005C019F40EF0B4CEFDCEB8CEE1DEC8F31B
S11314B09638C0F707F80F92E8942BE33AEA48EB22
S11314C05FE74EDF0F920F920F924DB75EB70F9208
S11314D089D0E6EEF0E024D04F915F91EF91FF9137
S11314E0E595EE1FFF1F49F0FE57E0684427EE0F15
S11314F0441FFA95E1F74195550B40D00F9007FE34
S113150034C008959F3F31F0915020F4879577952A
S11315106795B795880F911D9695879597F90895C6
S1131520DF93CF931F930F93FF92EF92DF927B0190
S11315308C01689405C0DA2EEF0110DFFE01E894F7
S1131540A5912591359145915591AEF3EF010FDDAC
S1131550FE019701A801DA9479F7DF90EF90FF90EC
S11315600F911F91CF91DF9108959B01AC0160E031
S113157070E080E89FE352CD4BCEC4CF79DEE8F330
S11315809923D9F3940F511DBBF39150504094F01B
S113159059F0882332F0660F771F881F915050400E
S11315A0C1F79E3F510544F7880F911D9695879585
S11315B097F908955F3FACF0983E9CF0BB27869561
S11315C077956795B79508F4B1609395C1F7BB0F0C
S11315D058F711F460FFE8CF6F5F7F4F8F4F9F4F35
S11315E0E3CF61CEFA01DC01AA0FBB1F9B01AC0162
S11315F0BF5728F422273327442750781FC0B751F8
S113160088F4AB2F0024469537952795011CA395A4
S1131610D2F3002069F0220F331F441FB395DAF38D
S11316200DD093CC61307105A0E88A07B94630F437
S11316309B01AC016627772788279078309621F0A4
S113164020833183428353830895052E97FB16F438
S113165000940FD057FD05D014D007FC02D046F4F7
S113166008C050954095309521953F4F4F4F5F4F9F
S1131670089590958095709561957F4F8F4F9F4FFA
S11316800895A1E21A2EAA1BBB1BFD010DC0AA1FBF
S1131690BB1FEE1FFF1FA217B307E407F50720F0D7
S11316A0A21BB30BE40BF50B661F771F881F991F52
S11316B01A9469F760957095809590959B01AC019B
S10D16C0BD01CF010895F894FFCF97
S10B16CA3661023D0AD7233CFE
S9030000FC
